:060000000A128A110C280F
:10000800FE00030EF1000A08F2000A128A119A286B
:100018000A128A110F28F801F90183010A128A11BC
:10002800F929F500831203139F181B281C28992807
:100038006428C3309F0598281F08C33904389F00D7
:1000480098281F08C33908389F0098281F08C33903
:100058000C389F0098281F08C33910389F0098282B
:100068001F08C33914389F0098281F08C339183847
:100078009F0098281F08C3391C389F0098281F081C
:10008800C33920389F0098281F08C33924389F0097
:1000980098281F08C33928389F0098281F08C33993
:1000A8002C389F0098281F08C33930389F0098289B
:1000B8001F08C33934389F009828C3309F059828F3
:1000C8007508F300F4017408003A03196C286128D4
:1000D8007308003A03191D28013A03192028033A26
:1000E80003192528013A03192A28073A03192F2842
:1000F800013A03193428033A03193928013A031934
:100108003E280F3A03194328013A03194828033AAD
:1001180003194D28013A03195228073A0319572899
:10012800013A03195C2861289F14080083120313FD
:100138000C1F9F28A028AE281F0CF000700C0F3948
:10014800003A031DA828A928AD281E08F000700849
:10015800F8000C138C1DB128B22808291412141B9E
:10016800B628B728BB28941FBA28BB28C22813086A
:10017800F0007008F900141394131416831603136F
:10018800941AC728C828E4281419CB28CC28E428AE
:10019800831203131308F0007008F9008C11141669
:1001A80083160313141CD928DA28D42883120313BE
:1001B80013088800A630F000F00BE028000005299D
:1001C800941AE728E8280529141DEB28EC280529A6
:1001D800831203131308F0007008F9008316031341
:1001E800141078088312031393001416A630F00035
:1001F800F00BFC28000083160313141804290529A2
:10020800FF28831203138C1172088A00710E830071
:10021800FE0E7E0E0900F7003029C030831203134A
:100228009F0452293F30831203139F0552298312DA
:1002380003131F083F3940389F00522983120313C4
:100248001F083F3980389F005229831203131F0863
:100258003F3940389F0052297708F500F6017608A3
:10026800003A0319382929297508013A031911296F
:10027800033A031916290A3A03191B29283A0319BC
:1002880022292929831603131F12682983160313A9
:100298001F166829831603131F1268297308F500AF
:1002A800F6017608003A03195A294E297508003ACA
:1002B80003194629013A03194A294E299F12782918
:1002C8009F1678299F1278297408F500F601760898
:1002D800003A0319702966297508003A031962293A
:1002E800013A0319642966299F13831203131F1403
:1002F8000C13831603130C170800F5008316031359
:100308000F149D290F088F3940388F00B3290F0823
:100318008F3950388F00B3290F088F3960388F0014
:10032800B32970308F04B3290F088F3960388F00D4
:10033800B3297508F300F4017408003A0319A529D4
:1003480098297308013A03198629033A03198B2956
:10035800063A031990290C3A031995299829080097
:1003680001308316031385008312031385010130BE
:1003780083160317880089018316031386018801F1
:10038800831203138601880150300A128A11DF2173
:100398000A128A1108300A128A1181210A128A1156
:1003A800F301F40108300A128A110F210A128A1186
:1003B8000B178B170800F3007308831603139300B9
:1003C800363083120313940080308316031394008D
:1003D8000130910087150716831203138C118316B9
:1003E80003138C150B178B1708000A128A11B421F6
:1003F8000A128A1100300A128A1115200A128A116B
:10040800343083120313A100F130A000A00B0A2A94
:0C041800A10B0A2AFE290A128A110C28E6
:08400000FF3FFF3FFF3FFF3FC0
:04400E00D420FF3F7C
:00000001FF
