:060000000A128A110C280F
:10000800FE00030EF0000A08F1000A168A117F2884
:100018000A128A110F288313CF308400ED300A1694
:100028008A1186200A128A1183179030840098302A
:100038000A168A1186200A128A1183010A128A1561
:100048009B2B831203135F088039E400640883162E
:100058000313A000831203135F08E4006407E5009C
:10006800650883160313A60083120313DE1F3D28B9
:100078003E284128831603132614831603132608E3
:100088000319472848285A28260A031D4C284D28B2
:100098005728003083120313DF000030DE000030E1
:1000A800DD000030DC008312DE1764280030831284
:1000B8000313DF000030DE000030DD000030DC001C
:1000C80063088039E400640883160313A0068312CA
:1000D80003136308E4006407E50065088316031347
:1000E800A50083120313E21F7A287B287E28831633
:1000F8000313251483160313250803198428852858
:100108009728250A031D89288A28942800308312F5
:100118000313E3000030E2000030E1000030E000AB
:100128008312E217A128003083120313E300003082
:10013800E2000030E1000030E000831603132508D8
:100148000319A728A828AD282608031DAC28AD2820
:10015800B828003083120313DF000030DE000030BF
:10016800DD000030DC004D2D831203135C08E40031
:100178006408F20062080A128A11D6270A128A1144
:10018800730883160313AC007208AB002B088312A4
:100198000313E400E501E601E7016708831603138A
:1001A800A40083120313660883160313A3008312A3
:1001B8000313650883160313A2008312031364084C
:1001C80083160313A1002C0883120313E400E5012E
:1001D800E601E701670883160313AA0083120313D5
:1001E800660883160313A900831203136508831690
:1001F8000313A80083120313640883160313A700CC
:10020800831203135D08E4006408F20061080A120F
:100218008A11D6270A128A11730883160313AC00B1
:100228007208AB002B0883120313E400E501E60112
:10023800E701640883160313A107831203136508F3
:1002480003110318013E03192C2983160313A2076F
:1002580083120313660803110318013E0319372993
:1002680083160313A30783120313670803110318E4
:10027800013E0319422983160313A40783120313AB
:10028800831603132C0883120313E400E501E60127
:10029800E701640883160313A7078312031365088D
:1002A80003110318013E03195C2983160313A807D9
:1002B80083120313660803110318013E0319672903
:1002C80083160313A907831203136708031103187E
:1002D800013E0319722983160313AA078312031315
:1002E80083160313831203135E08E4006408F20004
:1002F80060080A128A11D6270A128A11730883160F
:100308000313AC007208AB002B0883120313E4003C
:10031800E501E601E701640883160313A1078312C8
:100328000313650803110318013E03199E29831658
:100338000313A20783120313660803110318013E6F
:100348000319A92983160313A30783120313670844
:1003580003110318013E0319B42983160313A407D4
:1003680083120313831603132C0883120313E40068
:10037800E501E601E701640883160313A707831262
:100388000313650803110318013E0319CE298316C8
:100398000313A80783120313660803110318013E09
:1003A8000319D92983160313A907831203136708AE
:1003B80003110318013E0319E42983160313AA073E
:1003C8008312031383160313083083120313E40004
:1003D800031083160313A10DA20DA30DA40D831200
:1003E8000313E40BEC295D08E4006408F2006008DC
:1003F8000A128A11D6270A128A1173088316031360
:10040800AC007208AB002B0883120313E4008316B8
:1004180003132C0883120313E500E601E7016408BF
:1004280083160313A1078312031365080311031826
:10043800013E0319222A83160313A207831203130A
:10044800660803110318013E03192D2A83160313A6
:10045800A30783120313670803110318013E031946
:10046800382A83160313A40783120313831603136E
:10047800831203135C08E4006408F20061080A129E
:100488008A11D6270A128A11730883160313AC003F
:100498007208AB002B0883120313E40083160313BE
:1004A8002C0883120313E500E601E70164088316AC
:1004B8000313A10783120313650803110318013EF0
:1004C8000319692A83160313A20783120313660804
:1004D80003110318013E0319742A83160313A30793
:1004E80083120313670803110318013E03197F2AB7
:1004F80083160313A4078312031383160313083008
:1005080083120313E400031083160313A10DA20D35
:10051800A30DA40D83120313E40B872A5C08E400DF
:100528006408F20060080A128A11D6270A128A1192
:10053800730883160313AC007208AB002B088312F0
:100548000313E400831603132C0883120313E50036
:10055800E601E701640883160313A1078312031356
:10056800650803110318013E0319BD2A83160313F6
:10057800A20783120313660803110318013E031927
:10058800C82A83160313A3078312031367080311EA
:100598000318013E0319D32A83160313A4078312F1
:1005A800031383160313831203135D08E40064081E
:1005B800F20062080A128A11D6270A128A117308F1
:1005C80083160313AC007208AB002B0883120313C5
:1005D800E400831603132C0883120313E500E601D5
:1005E800E701640883160313A7078312031365083A
:1005F80003110318013E0319042B83160313A807DC
:1006080083120313660803110318013E03190F2B05
:1006180083160313A907831203136708031103182A
:10062800013E03191A2B83160313AA078312031317
:1006380083160313831203135E08E4006408F200B0
:1006480061080A128A11D6270A128A1173088316BA
:100658000313AC007208AB002B0883120313E400E9
:10066800831603132C0883120313E500E601E70140
:10067800640883160313A70783120313650803117D
:100688000318013E03194B2B83160313A807831283
:100698000313660803110318013E0319562B83162A
:1006A8000313A90783120313670803110318013EF4
:1006B8000319612B83160313AA07831203138316E6
:1006C8000313831203135E08E4006408F20062084F
:1006D8000A128A11D6270A128A117308831603137D
:1006E800AC007208AB002B0883120313E4008316D6
:1006F80003132C0883120313E500E601E701083011
:100708000310E40DE50DE60DE70DFF3E031D842BF8
:10071800640883160313A7078312031365080311DC
:100728000318013E03199B2B83160313A807831292
:100738000313660803110318013E0319A62B831639
:100748000313A90783120313670803110318013E53
:100758000319B12B83160313AA07831203138316F5
:100768000313210883120313E400831603132208DA
:1007780083120313E500831603132308831203135C
:10078800E60083160313240883120313E7001830C6
:100798000310E70CE60CE50CE40CFF3E031DCC2B24
:1007A800640883160313A70783120313650803114C
:1007B8000318013E0319E32B83160313A8078312BA
:1007C8000313660803110318013E0319EE2B831661
:1007D8000313A90783120313670803110318013EC3
:1007E8000319F92B83160313AA078312031383161D
:1007F8000313083083120313E40003108316031352
:10080800A10DA20DA30DA40D83120313E40B012C5B
:10081800831603132608250783120313E400E50152
:10082800E50D6408823E83160313AB00831203139D
:1008380065080318013EFF3E83160313AC00512CD4
:10084800013083120313E400031083160313A70D6A
:10085800A80DA90DAA0D83120313E40B282C8316E7
:100868000313A41F382C392C3A2C27140130831277
:100878000313E400031083160313A10DA20DA30DA7
:10088800A40D83120313E40B3E2CFF3083160313CD
:10089800AB070318AC0AFF30AC07A91F542C552C22
:1008A800242CA501A41F592C5A2C882CFF30210573
:1008B80083120313E400FF30831603132205831207
:1008C8000313E500FF308316031323058312031374
:1008D800E6007F3083160313240583120313E70011
:1008E800670866046504640403197B2C7C2C812C3E
:1008F80083160313A501A50A882C83160313271C46
:10090800862C872C882C7C2C250803198C2C8D2C64
:10091800DA2C0130A707003003180130A80700308F
:1009280003180130A907003003180130AA072A1C50
:100938009E2C9F2CDA2C270883120313E4008316BD
:100948000313280883120313E500831603132908E9
:1009580083120313E600831603132A088312031372
:10096800E7000130E800670DE70CE60CE50CE40C45
:10097800E80BB72C670883160313AA008312031326
:10098800660883160313A9008312031365088316E8
:100998000313A80083120313640883160313A70024
:1009A8000130AB070318AC0A0030AC072C08803ABA
:1009B800FF0080307F02031DE32CFF302B02031C55
:1009C800E62CE72CF22C7F3083160313AA00803024
:1009D800A9000030A8000030A7002F2D83160313AC
:1009E8002C08803AFF0080307F02031DFD2C013067
:1009F8002B020318002D012D0D2D00308316031333
:100A0800AA000030A9000030A8000030A700A0010B
:100A18002F2D831603132B0883120313E400640895
:100A280083160313A600FF30A705FF30A8057F3003
:100A3800A9050030AA05261C222D232D242DA9172F
:100A4800260883120313E4000310640CE50065080C
:100A580083160313AA00200883120313E400640812
:100A680083160313AA042A0883120313DF008316CC
:100A78000313290883120313DE00831603132808BF
:100A880083120313DD00831603132708831203134D
:100A9800DC0008007508803983120313A0002008C1
:100AA800A8007508A0002007A1002108AA00F41FCB
:100AB8005E2D5F2D602D2A142A080319642D652DDB
:100AC800752D2A0A031D692D6A2D722D0030F50037
:100AD8000030F4000030F3000030F200F417F501A4
:100AE8007D2D0030F5000030F4000030F3000030B8
:100AF800F20079088039A0002008A90029082806F2
:100B08000319872D882D892D28177908A00020071B
:100B1800A1002108A900F81F922D932D942D2914C6
:100B280029080319982D992DA92D290A031D9D2DF2
:100B38009E2DA62D0030F9000030F8000030F70097
:100B48000030F600F817F901B12D0030F900003037
:100B5800F8000030F7000030F6002A0829020318D0
:100B6800B62DB72DFB2D281FBA2DBB2DBF2D8030DC
:100B7800A0002008A8062A08A0002008AB00290821
:100B8800A0002008AA002B08A0002008A9007208CD
:100B9800A0002008AB007608A0002008F2002B086F
:100BA800A0002008F6007308A0002008AB00770812
:100BB800A0002008F3002B08A0002008F700740804
:100BC800A0002008AB007808A0002008F4002B083B
:100BD800A0002008F8007508A0002008AB007908DC
:100BE800A0002008F5002B08A0002008F900AB01A0
:100BF8002908A000A1012108A3002A082002A200B8
:100C0800031CA3032308803AFF0080307F02031DE2
:100C18000F2E1A302202031C122E132E502E750886
:100C2800740473047204031D1A2E1C2E01301D2E29
:100C3800003083120313A0002008AB000030F50039
:100C48000030F4000030F3000030F2002908A00062
:100C58002008AA00582E2B1C322E332E3C2E2B088F
:100C6800A0000310200C0138A1002108AB003E2E83
:100C78000310AB0C721C412E422E432EAB170130D1
:100C8800A000750DF50CF40CF30CF20CA00B452E1E
:100C98000130A0002008AA078312031329082A029A
:100CA800031C572E582E2F2E281B5B2E5C2EA72E8A
:100CB8002A08031D602E612E6A2E0030F5000030D0
:100CC800F4000030F3000030F200D52F7608F20768
:100CD800770803110318013E0319732EF3077808E8
:100CE80003110318013E03197A2EF407790803113A
:100CF8000318013E0319812EF507751C842E852ED5
:100D08005B2F2B1C882E892E922E2B08A0000310F7
:100D1800200C0138A1002108AB00942E0310AB0C65
:100D2800721C972E982E992EAB170130A000750DC6
:100D3800F50CF40CF30CF20CA00B9B2E0130A00068
:100D48002008AA075B2F7508803AFF007908803AC7
:100D58007F02031DB92E78087402031DB92E770887
:100D68007302031DB92E760872020318BC2EBD2E1D
:100D7800152FFF30A000FF30A100FF30A200FF3088
:100D8800A3007608A4007708A5007808A6007908CB
:100D9800A7007208A4027308031C730FD42ED52E63
:100DA800A5027408031C740FDA2EDB2EA602750840
:100DB800031C750FE02EE12EA7022408A0072508C2
:100DC8000318250FE82EE92EA10726080318260F79
:100DD800EE2EEF2EA20727080318270AA3072308D9
:100DE800F5002208F4002108F3002008F200803002
:100DF800A0002008A806AB09AB0A2B08031D052F85
:100E0800062F232F0130F207003003180130F307B3
:100E1800003003180130F407003003180130F507DB
:100E2800232F7608F2027708031C770FF30278085D
:100E3800031C780FF4027908031C790FF502750872
:100E4800740473047204031D2A2F2B2F572F2B08A9
:100E5800031D2F2F302F572F0030F5000030F400DE
:100E68000030F3000030F200D52F0130A00003104D
:100E7800F20DF30DF40DF50DA00B3B2FAB1F452F15
:100E8800462F472F72142B1C4A2F4B2F4E2F03141B
:100E9800AB0D502F0310AB0D2A080319542F552FF3
:100EA800572F0130AA02F41F5A2F5B2F392FA9019F
:100EB800AB1F5F2F602F6E2F2B087F390319652F0B
:100EC800662F692FA901A90A6E2F721C6C2F6D2F2E
:100ED8006E2F662F29080319722F732FA72F013041
:100EE800F207003003180130F3070030031801300F
:100EF800F407003003180130F507751C842F852F7F
:100F0800A72F7208A0007308A1007408A200750832
:100F1800A3000130A400230DA30CA20CA10CA00C6B
:100F2800A40B8F2F2308F5002208F4002108F300F2
:100F38002008F2002A0A0319A22FA32FA72F013095
:100F4800A0002008AA072A0A0319AB2FAC2FB12F3B
:100F58002A08031DB02FB12FBF2F0030F500003035
:100F6800F4000030F3000030F2002A08031DBD2F02
:100F7800BE2FBF2FA8012A1CC22FC32FC52FF417BD
:100F8800C92F7F30A0002008F4052A08A00003100C
:100F9800200CA1002108F500A81FD32FD42FD52F8E
:100FA800F5170800FA00F601F7017208F400F501D8
:100FB8007408F8007508F9007A1CE32FE42FEA2F6B
:100FC8007808F6070318F70A7908F70701300310BD
:100FD800F80DF90DFF3E031DEB2F0310FA0C7A08EC
:100FE800031DF72FF82FE02F7708F3007608F2009B
:020FF8000800EF
:1010000083160313141905280628002811081F3910
:10101000031D0B280C2800280800F801F51F1128D3
:1010200012281928F409F509F40A0319F50AF80138
:10103000F80AF31F1C281D282228F209F309F20AD6
:101040000319F30A7208730403192728282857285C
:10105000F701F70A362801300310F20DF30DFF3EB9
:10106000031D2C280130F6007608F707F31F3928F6
:101070003A282B2873087502031D40287208740251
:10108000031C432844284A287208F4027308031CEE
:10109000F503F50201300310F30CF20CFF3E031DC3
:1010A0004B280130F702031D562857283A287808A4
:1010B00003195B285C286128F409F509F40A03196F
:1010C000F50A7508F3007408F2000800831603138C
:1010D000630883120313AC0083160313640883129E
:1010E0000313AD00AE01AF0100300A168A11672567
:1010F0000A128A15831203132F08DF002E08DE0060
:101100002D08DD002C08DC004430BD008030BC0020
:101110000030BB000030BA00831603136508831249
:101120000313AC0083160313660883120313AD0088
:10113000AE01AF0100300A168A1167250A128A151E
:10114000831203132F08C1002E08C0002D08BF0012
:101150002C08BE000A168A1123260A128A15831249
:1011600003133D08D7003C08D6003B08D5003A08D9
:10117000D4004630BD008030BC000030BB000030E1
:10118000BA0083160313350883120313AF008316C6
:101190000313340883120313AE00831603133308BA
:1011A00083120313AD008316031332088312031353
:1011B000AC0001300A168A1167250A128A158312BB
:1011C00003132F08C1002E08C0002D08BF002C08F3
:1011D000BE000A168A1123260A128A1583120313E7
:1011E0003D08DB003C08DA003B08D9003A08D8008B
:1011F0000A168A1107210A128A1583120313570847
:10120000E3005608E2005508E1005408E0000A1225
:101210008A1125200A128A15831203135F08831688
:101220000313B900831203135E0883160313B80077
:10123000831203135D0883160313B700831203138D
:101240005C0883160313B600463083120313BD00F7
:101250000030BC000030BB000030BA00831603131E
:10126000650883120313AC00831603136608831208
:101270000313AD00AE01AF0100300A168A116725D5
:101280000A128A15831203132F08C1002E08C0000A
:101290002D08BF002C08BE000A168A1123260A1248
:1012A0008A15831203133D08D7003C08D6003B087B
:1012B000D5003A08D4004830BD000030BC000030F2
:1012C000BB000030BA0083160313350883120313E2
:1012D000AF0083160313340883120313AE00831682
:1012E0000313330883120313AD008316031332086C
:1012F00083120313AC0001300A168A1167250A1203
:101300008A15831203132F08C1002E08C0002D0870
:10131000BF002C08BE000A168A1123260A128A155D
:10132000831203133D08DB003C08DA003B08D900B8
:101330003A08D8000A168A1107210A128A15831260
:1013400003135708DF005608DE005508DD00540877
:10135000DC004630BD000030BC000030BB00003077
:10136000BA0083160313650883120313AC008316B7
:101370000313660883120313AD00AE01AF01003002
:101380000A168A1167250A128A15831203132F0879
:10139000C1002E08C0002D08BF002C08BE000A1690
:1013A0008A1123260A128A15831203133D08D700D7
:1013B0003C08D6003B08D5003A08D4004830BD00B0
:1013C0000030BC000030BB000030BA0083160313AD
:1013D000350883120313AF008316031334088312F6
:1013E0000313AE0083160313330883120313AD00F7
:1013F00083160313320883120313AC0001300A165C
:101400008A1167250A128A15831203132F08C10057
:101410002E08C0002D08BF002C08BE000A168A1135
:1014200023260A128A15831203133D08DB003C08A9
:10143000DA003B08D9003A08D8000A168A110721B9
:101440000A128A15831203135708E3005608E200B4
:101450005508E1005408E0000A128A1125200A12FA
:101460008A15831203135F0883160313C5008312C2
:1014700003135E0883160313C400831203135D086D
:1014800083160313C300831203135C08831603132C
:10149000C200610883120313AC00831603136208B1
:1014A00083120313AD00AE01AF0100300A168A119A
:1014B00067250A128A15831203132F08DF002E08EE
:1014C000DE002D08DD002C08DC0083160313450820
:1014D00083120313E30083160313440883120313D8
:1014E000E20083160313430883120313E1008316FB
:1014F0000313420883120313E0000A128A11252005
:101500000A128A15831203135F0883160313BD00A2
:10151000831203135E0883160313BC0083120313A4
:101520005D0883160313BB00831203135C08831644
:101530000313BA003908F9003808F8003708F70033
:101540003608F6003D08F5003C08F4003B08F300BF
:101550003A08F2000A128A114E250A128A157508F5
:1015600083120313EC007408EB007308EA0072089E
:10157000E9000A168A11CB240A128A158312031372
:101580006C08AF006B08AE006A08AD006908AC00DB
:1015900001300A168A1167250A128A15831203136D
:1015A0002F0883160313C100831203132E0883161A
:1015B0000313C000831203132D0883160313BF0007
:1015C000831203132C0883160313BE0041088312F1
:1015D0000313C10083160313400883120313C000D2
:1015E000831603133F0883120313BF0083160313EC
:1015F0003E0883120313BE004530BD00A030BC007E
:101600000030BB000030BA000A168A1123260A12E5
:101610008A15831203133D08EC003C08EB003B08DD
:10162000EA003A08E9000A168A11CB240A128A1540
:10163000831203136A0883160313C700831203136C
:10164000690883160313C600E830F2000330F30084
:101650004708F5004608F4000A168A1175220A1296
:101660008A15730883160313D0007208CF00E83080
:10167000F2000330F3004708F5004608F4000A16AC
:101680008A11BB210A128A15730883160313D80026
:101690007208D7006430F2000030F3005808F500FB
:1016A0005708F4000A168A1175220A128A1573085F
:1016B00083160313D2007208D1006430F2000030A8
:1016C000F3005808F5005708F4000A168A11BB21E8
:1016D0000A128A15730883160313D8007208D700FC
:1016E0000A30F2000030F3005808F5005708F40003
:1016F0000A168A1175220A128A15730883160313B3
:10170000D4007208D3000A30F2000030F300580809
:10171000F5005708F4000A168A11BB210A128A152F
:10172000730883160313D8007208D7005808D60030
:101730005708D50008000A168A1131220A128A15A4
:10174000F601F60A01300A168A11E3200A128A15F8
:1017500001300A168A112B210A128A1583160313E7
:10176000E8012730C8004808E7000A168A119720C8
:101770000A128A150030F5000030F4000030F30042
:101780005030F2000A168A11A9200A128A1583160F
:1017900003135D08F2005E08F3000030F31BFF3016
:1017A000F400F5000A168A11A9200A128A150A16F1
:1017B0008A11A0200A128A15033083160313C90068
:1017C0009730C800C80BE22BC90BE22B0A168A110E
:1017D00097200A128A150030F5000030F40000301E
:1017E000F3005130F2000A168A11A9200A128A1554
:1017F0000030F5000030F4000030F3000030F2005B
:101800000A168A11F5210A128A1573088316031322
:10181000E0007208DF000A168A11A0200A128A1559
:10182000033083160313C9009730C800C80B162C69
:10183000C90B162C0A168A1197200A128A15003035
:10184000F5000030F4000030F300EE30F2000A162C
:101850008A11A9200A128A150030F5000030F40020
:101860000030F300F530F2000A168A11A9200A129E
:101870008A150030F5000030F4000030F30000302D
:10188000F2000A168A11A9200A128A150A168A116C
:10189000A0200A128A15033083160313C90097305B
:1018A000C800C80B512CC90B512C0A168A1197205D
:1018B0000A128A150030F5000030F4000030F30001
:1018C000EE30F2000A168A11A9200A128A15003099
:1018D000F5000030F4000030F300F430F2000A1696
:1018E0008A11A9200A128A150030F5000030F40090
:1018F0000030F3002730F2000A168A11A9200A12DC
:101900008A150A168A11A0200A128A150330831636
:101910000313CA008A30C9005530C800C80B8E2C8A
:10192000C90B8E2CCA0B8E2C0A168A1197200A120C
:101930008A150030F5000030F4000030F300EE307E
:10194000F2000A168A11A9200A128A150030F50041
:101950000030F4000030F300FA30F2000A168A1169
:10196000A9200A128A150A168A118E200A128A15CF
:101970000030F5000030F4000030F300EF30F200EA
:101980000A168A11A9200A128A150030F5000030C3
:10199000F4000030F3000030F2000A168A11F5213D
:1019A0000A128A15720883160313C8004808EC004F
:1019B0000030F5000030F4000030F3000030F20099
:1019C0000A168A11F5210A128A1572088316031362
:1019D000C8004808EB000A168A11A0200A128A15CE
:1019E000033083160313C9009730C800C80BF62CC8
:1019F000C90BF62C0A168A1197200A128A15003094
:101A0000F5000030F4000030F300EE30F2000A166A
:101A10008A11A9200A128A150030F5000030F4005E
:101A20000030F300FC30F2000A168A11A9200A12D5
:101A30008A150A168A118E200A128A150030F500BE
:101A40000030F4000030F300EF30F2000A168A1183
:101A5000A9200A128A150030F5000030F400003089
:101A6000F3000030F2000A168A11F5210A128A15D5
:101A7000720883160313C8004808EA000A168A1180
:101A8000A0200A128A15033083160313C900973069
:101A9000C800C80B492DC90B492D0A168A11972079
:101AA0000A128A150030F5000030F4000030F3000F
:101AB000EE30F2000A168A11A9200A128A150030A7
:101AC000F5000030F4000030F3008830F2000A1610
:101AD0008A11A9200A128A150A168A118E200A1262
:101AE0008A150030F5000030F4000030F300EF30CC
:101AF000F2000A168A11A9200A128A150030F50090
:101B00000030F4000030F3000030F2000A168A11B1
:101B1000F5210A128A15720883160313C900C80139
:101B20004808E5004908E6000030F5000030F40000
:101B30000030F3000030F2000A168A11F5210A1273
:101B40008A15720883160313E5070318E60A73085B
:101B5000E6070A168A11A0200A128A150330831696
:101B60000313C9009730C800C80BB42DC90BB42D9E
:101B70000A168A1197200A128A150030F5000030E3
:101B8000F4000030F300EE30F2000A168A11A920AA
:101B90000A128A150030F5000030F4000030F3001E
:101BA0008A30F2000A168A11A9200A128A150A162A
:101BB0008A118E200A128A150030F5000030F400D8
:101BC0000030F300EF30F2000A168A11A9200A1241
:101BD0008A150030F5000030F4000030F3000030CA
:101BE000F2000A168A11F5210A128A157208831664
:101BF0000313C900C8014808E3004908E4000030A5
:101C0000F5000030F4000030F3000030F2000A1656
:101C10008A11F5210A128A15720883160313E30745
:101C20000318E40A7308E4070A168A11A0200A12AE
:101C30008A15033083160313CA008A30C900553051
:101C4000C800C80B212EC90B212ECA0B212E0A1643
:101C50008A1197200A128A150030F5000030F4002E
:101C60000030F300EE30F2000A168A11A9200A12A1
:101C70008A150030F5000030F4000030F3008C309D
:101C8000F2000A168A11A9200A128A150A168A1168
:101C90008E200A128A150030F5000030F400003062
:101CA000F300EF30F2000A168A11A9200A128A15F1
:101CB0000030F5000030F4000030F3000030F20096
:101CC0000A168A11F5210A128A157208831603135F
:101CD000C900C8014808E1004908E2000030F500E9
:101CE0000030F4000030F3000030F2000A168A11D0
:101CF000F5210A128A15720883160313E1070318E7
:101D0000E20A7308E2070A168A11A0200A128A154D
:101D1000033083160313C9009730C800C80B8E2EFA
:101D2000C90B8E2E831603136B08C8004808F200F7
:101D30006A08C9004908F3006C080A168A113A2497
:101D40000A128A15750883160317970074089600FF
:101D50007308950072089400170883160313B500E2
:101D600083160317160883160313B400831603178C
:101D7000150883160313B30083160317140883167C
:101D80000313B2000A128A1566200A128A158316F6
:101D900003135F0883120313AC0083160313600858
:101DA00083120313AD000030AD1BFF30AE00AF0057
:101DB00001300A168A1167250A128A158312031345
:101DC0002F08E3002E08E2002D08E1002C08E000B7
:101DD0003C30DF00A030DE00A030DD00A130DC00B0
:101DE0000A128A1125200A128A15831203135F082A
:101DF00083160313CE00831203135E0883160313A6
:101E0000CD00831203135D0883160313CC008312E5
:101E100003135C0883160313CB004E0883120313CD
:101E2000E300831603134D0883120313E2008316A5
:101E300003134C0883120313E100831603134B08AA
:101E400083120313E0004230DF00C830DE000030B0
:101E5000DD000030DC000A128A1125200A128A15E2
:101E6000831203135F08EC005E08EB005D08EA00D4
:101E70005C08E9000A168A11CB240A128A1583121B
:101E80000313690883160313C8004808E900831286
:101E9000031306184C2F4D2F542F013083160313B4
:101EA000DD000030DE00792F8618572F582F5F2F66
:101EB000023083160313DD000030DE00792F06198F
:101EC000622F632F6A2F043083160313DD00003066
:101ED000DE00792F86196D2F6E2F752F083083162F
:101EE0000313DD000030DE00792F83160313DD01BC
:101EF000DE016908C800C901480883120313A00065
:101F000083160313490883120313A1000A168A11CA
:101F1000CF230A128A15F601F60A02300A168A1130
:101F2000E3200A128A150F300A168A112B210A1291
:101F30008A15831603135908303E0A168A11B320F6
:101F40000A128A152E300A168A11B3200A128A152F
:101F5000831603135A08303E0A168A11B3200A1258
:101F60008A15831603135B08303E0A168A11B320C4
:101F70000A128A1556300A168A11B3200A128A15D7
:101F80000F300A168A112B210A128A150F300A16F1
:101F90008A112B210A128A15831603134F08303E2B
:101FA0000A168A11B3200A128A15831603135108E0
:101FB000303E0A168A11B3200A128A152E300A16EC
:101FC0008A11B3200A128A15831603135308303E70
:101FD0000A168A11B3200A128A15831603135508AC
:101FE000303E0A168A11B3200A128A1543300A16A7
:101FF0008A11B3200A128A15AE2B0A128A110C28F4
:1020000010308A000408840A820700342034203407
:1020100053343134203420342034203420345434A8
:0C20200045344D3450340034203400347A
:1020F200F2007208831203138800080071088A0034
:10210200700E8300FE0E7E0E090064008001840AB8
:10211200040603190034040687280A128A150020CF
:102122000A168A1183160313911408000A128A15DB
:1021320000200A168A1183160313111408000A12CA
:102142008A1500200A168A11831603131115080036
:102152000A128A1500200A168A11720883120313C2
:1021620093000800F40083120313071774080A1679
:102172008A1179200A168A118312031387171A30DB
:10218200F300F30BC2280000831203138713080025
:10219200F50083120313071375080A168A117920B2
:1021A2000A168A118312031387170B30F400623068
:1021B200F300F30BDA28F40BDA280000831203137E
:1021C20087130800F8007803031DE828E928F5289A
:1021D20076087F3EF7007708F90079080A168A1117
:1021E200C9200A168A11062902307806031DFA2828
:1021F200FB2806297608BF3EF7007708F900790820
:102202000A168A11C9200A168A1108008030831220
:102212000313D7065B08F5005A08F4005908F300C7
:102222005808F2005708F9005608F8005508F70058
:102232005408F6000A128A114E250A168A117508E8
:1022420083120313D7007408D6007308D5007208EE
:10225200D4000800F700F501F60142297508770756
:1022620084000A168A1100200A168A110A168A1197
:10227200B3200A168A110130F5070318F60A003056
:10228200F6077508770784000A168A1100200A16D5
:102292008A11003A031D4E294F292F290800F40004
:1022A200831603130F146C290F088F3940388F00DF
:1022B20082290F088F3950388F0082290F088F39F1
:1022C20060388F00822970308F0482290F088F397D
:1022D20060388F0082297408F200F3017308003A13
:1022E2000319742967297208013A03195529033A17
:1022F20003195A29063A03195F290C3A031964296A
:1023020067290800283083120313940083160313ED
:102312009101831203132508A9002608AA002708A1
:10232200AB002808AC0002300310A90DAA0DAB0DBA
:10233200AC0DFF3E031D95292C08F5002B08F40077
:102342002A08F3002908F2000030F9007A30F80078
:102352001230F7000030F6000A168A1167230A16B7
:102362008A117208FF3E83160313930094018715A6
:1023720007160800720873040319C029C129F0293D
:10238200F701F70ACF2901300310F20DF30DFF3EDA
:10239200031DC5290130F6007608F707F31FD2297D
:1023A200D329C42973087502031DD929720874023E
:1023B200031CDC29DD29E3297208F4027308031CDB
:1023C200F503F50201300310F30CF20CFF3E031D7E
:1023D200E4290130F702031DEF29F029D3297508FA
:1023E200F3007408F20008000A128A1500200A1687
:1023F2008A118316031391150A128A1500200A16F0
:102402008A11831203131308F600F701F801F90188
:102412007908A3007808A2007708A1007608A00036
:102422000A128A1500200A168A11720373047404B0
:102432007504031D1D2A1E2A222A831603139112D4
:10244200252A8316031391161116831203132308E8
:10245200F5002208F4002108F3002008F200080029
:1024620083160317880189018316031386018801E5
:102472008312031386018801183083160313870021
:1024820083120313870108300A168A1150210A1693
:102492008A110A168A11B9220A168A110030831289
:1024A2000313A8000030A7002730A6001030A500B3
:1024B2000A168A1183210A168A110F308316031312
:1024C2008600831203138601831603138501831288
:1024D200031385018316031381131514951415151F
:1024E20095150B178B170800F701F8017208730492
:1024F20003197C2A7D2AB42AF901F90A8B2A0130B0
:102502000310F20DF30DFF3E031D812A0130F60088
:102512007608F907F31F8E2A8F2A802A01300310CA
:10252200F70DF80DFF3E031D902A73087502031D77
:102532009C2A72087402031C9F2AA02AA72A7208E6
:10254200F4027308031CF503F5027714013003103B
:10255200F30CF20CFF3E031DA82A0130F902031D01
:10256200B32AB42A8F2A7808F3007708F200080009
:1025720000300A168A1179200A168A113430F700BF
:10258200F130F600F60BC32AF70BC32AC82A303003
:102592000A168A11C9200A168A110D30F700FB307B
:1025A200F600F60BD22AF70BD22AD72A30300A16B7
:1025B2008A11C9200A168A114930F600F60BDF2A61
:1025C20030300A168A11C9200A168A1138300A16C2
:1025D2008A11C9200A168A110C300A168A11C920DA
:1025E2000A168A1101300A168A11C9200A168A119E
:1025F20006300A168A11C9200A168A110800F80143
:10260200F31F042B052B0C2BF209F309F20A031911
:10261200F30AF801F80AF51F0F2B102B192BF409F6
:10262200F509F40A0319F50A0130F6007608F806EE
:10263200F901FA01720873040319202B212B582B7C
:10264200F701F70A2F2B01300310F20DF30DFF3EB5
:10265200031D252B0130F6007608F707F31F322BF6
:10266200332B242B01300310F90DFA0DFF3E031D0D
:10267200342B73087502031D402B72087402031C6D
:10268200432B442B4B2B7208F4027308031CF503F3
:10269200F502791401300310F30CF20CFF3E031D16
:1026A2004C2B0130F702031D572B582B332B780884
:1026B20003195C2B5D2B622BF909FA09F90A03193C
:1026C200FA0A7A08F3007908F2000800003083124F
:1026D2000313A3000030A2000030A1000030A000CC
:1026E20075087404730472040319782B792BC62BB2
:1026F200A401A40A892B0130FA000310F20DF30D94
:10270200F40DF50DFA0B7E2B0130FA007A08A407BE
:10271200F51F8C2B8D2B7C2B0130FA000310A00DA2
:10272200A10DA20DA30DFA0B8F2B75087902031DC3
:10273200A42B74087802031DA42B73087702031DCF
:10274200A42B72087602031CA72BA82BB72B7208A6
:10275200F6027308031C730FF7027408031C740F4C
:10276200F8027508031C750FF902201401300310DA
:10277200F50CF40CF30CF20CFF3E031DB82B0130E8
:10278200A402031DC52BC62B8D2B2308F50022089E
:10279200F4002108F3002008F20008006430F2007F
:1027A2000030F300831203132108F5002008F4001F
:1027B2000A168A1100230A168A1172088312031359
:1027C200A200220883160313D9006430F2000030FD
:1027D200F300831203132108F5002008F4000A1203
:1027E2008A150D200A168A11720883120313A20099
:1027F200220883160313DC000A30F2000030F300D3
:102802005C0883120313A200A3012208F400230828
:10281200F5000A168A1100230A168A117208831219
:102822000313A400240883160313DA000A30F2000B
:102832000030F3005C0883120313A200A3012208F4
:10284200F4002308F5000A128A150D200A168A11CF
:10285200720883120313A400240883160313DC00F6
:102862005C0883120313A200220883160313DB0001
:102872000800F600760883120313A000A101A2014A
:10288200A3012308FB002208FA002108F90020080E
:10289200F8007808A0007908A1007A08A2007B0855
:1028A200A30008300310A00DA10DA20DA30DFF3E41
:1028B200031D532C2308FB002208FA002108F9000B
:1028C2002008F8007808A0007908A1007A08A20080
:1028D2007B08A3007208A400A501A601A701240891
:1028E200A0042508A1042608A2042708A30423089B
:1028F200FB002208FA002108F9002008F8007808F5
:10290200A0007908A1007A08A2007B08A300033086
:102912000310A00DA10DA20DA30DFF3E031D892CD6
:102922002308FB002208FA002108F9002008F80019
:102932007308A00004300310A00CFF3E031D9C2C62
:102942002008A1002108F7007808A0007908A1005A
:102952007A08A2007B08A3007708A400A501A601BB
:10296200A7012408A0042508A1042608A204270818
:10297200A3042308FB002208FA002108F90020081A
:10298200F8007B08F5007A08F4007908F30078086B
:10299200F20008000310831203136B0D6C0D8316F3
:1029A2000313AD002D0883120313EE006E08031DFE
:1029B200DB2CDC2CE52C0030EC000030EB0000308E
:1029C200EA000030E900662D690883160313AD00A2
:1029D200831203136A0883160313AE0083120313D0
:1029E2006B0883160313AF00831203136C0883165C
:1029F2000313B0001F300310B00CAF0CAE0CAD0CC3
:102A0200FF3E031DFC2C2D08B10031088312031375
:102A1200ED00EB17FF30E905FF30EA05FF30EB056B
:102A22000030EC059630EE02EE1F182D192D372DD1
:102A32006E08803A973E03181F2D202D212DDC2C85
:102A420001300310EC0CEB0CEA0CE90CFF3E031D09
:102A5200222D013083160313AD002D0883120313B8
:102A6200EE07031D352D362D212D562D20306E02F9
:102A7200031C3C2D3D2D512DDC2C013083160313FC
:102A8200AD00031083120313E90DEA0DEB0DEC0DFB
:102A920083160313AD0B422D013083120313EE0292
:102AA2006E08031D552D562D3E2D6D0803195A2D06
:102AB2005B2D662DE909EA09EB09EC09E90A03191C
:102AC200EA0A0319EB0A0319EC0A0800831203133A
:102AD200B400340803196E2D6F2D832DAF1F722D94
:102AE200732D832D2C09B6002D09B7002E09B800CD
:102AF2002F09B900B60A0319B70A0319B80A03194C
:102B0200B90A8B2D2F08B9002E08B8002D08B7007E
:102B12002C08B6002F082E042D042C04031D922D20
:102B2200932D9C2D0030AF000030AE000030AD0080
:102B32000030AC00222E9630B0003008B500AE2D29
:102B42000130B0003008B50701300310B90CB80CE1
:102B5200B70CB60CFF3E031DA62DFE303905031D32
:102B6200B32DB42DA12DD02D0130B0003008B50702
:102B72000130B607003003180130B70700300318E0
:102B82000130B807003003180130B90701300310D3
:102B9200B90CB80CB70CB60CFF3E031DC82DFF30A4
:102BA2003905031DD52DD62DB52DE22D0130B502E7
:102BB2000130B0000310B60DB70DB80DB90DB00B52
:102BC200DB2DB81BE52DE62DEC2D02303502031866
:102BD200EB2DEC2DD72D3518EF2DF02DF82DFF30E4
:102BE200B605FF30B7057F30B805FF30B9050310D1
:102BF200B50C3508B000B101B201B30118300310B1
:102C0200B00DB10DB20DB30DFF3E031D002E300805
:102C1200B6043108B7043208B8043308B9043408DA
:102C22000319142E152E1A2EAF1F182E192E1A2E16
:102C3200B9173908AF003808AE003708AD003608BA
:102C4200AC0008008312031341088039C200420815
:102C5200CB004108C2004207C3004308D200C01F94
:102C6200332E342E352E521452080319392E3A2E91
:102C72004A2E520A031D3E2E3F2E472E0030C1001F
:102C82000030C0000030BF000030BE00C017C101DC
:102C9200522E0030C1000030C0000030BF000030B2
:102CA200BE003D088039C2004208CB063D08C20082
:102CB2004207C3004308D300BC1F602E612E622E60
:102CC200531453080319662E672E772E530A031DD9
:102CD2006B2E6C2E742E0030BD000030BC00003014
:102CE200BB000030BA00BC17BD017F2E0030BD0012
:102CF2000030BC000030BB000030BA003D083C048C
:102D02003B043A04031D862E872EA02E0030C100FC
:102D12000030C0000030BF000030BE008030C00470
:102D22007F30C1044B08C2004208C1044108BD0003
:102D32004008BC003F08BB003E08BA00FF2F520803
:102D4200031DA42EA52EAE2E0030BD000030BC0007
:102D52000030BB000030BA00FF2F5208C200C3018E
:102D62004308C50053084202C400031CC5034408BB
:102D72007F3ECC0045080318013E003ECD004108CD
:102D8200CA004008C9003F08C8003E08C70000301A
:102D9200C1000030C0000030BF000030BE00003073
:102DA200D1000030D0000030CF000030CE00D3017F
:102DB200242F53080319DE2EDF2EFF2E0130C2000E
:102DC2000310C70DC80DC90DCA0DC20BE12E01308B
:102DD200C2000310BE0DBF0DC00DC10DC20BEA2E05
:102DE200D11FF42EF52EF62E3E140130C200031030
:102DF200CE0DCF0DD00DD10DC20BF82E3D084A02DB
:102E0200031D0D2F3C084902031D0D2F3B084802EC
:102E1200031D0D2F3A084702031C102F112F202FDC
:102E220051173A08C7023B08031C3B0FC8023C0873
:102E3200031C3C0FC9023D08031C3D0FCA020130AE
:102E4200C2004208D3071A305302031C292F2A2F2B
:102E5200DA2E4A084904480447040319312F322F55
:102E6200512F4E14512F0130C2000310BE0DBF0D61
:102E7200C00DC10DC20B362FD11F402F412F422F43
:102E82003E140130C2000310CE0DCF0DD00DD10D76
:102E9200C20B442FFF30CC070318CD0AFF30CD07F9
:102EA200C01F542F552F342FD301D11F592F5A2F02
:102EB200762FFF304E05C200FF304F05C300FF30B2
:102EC2005005C4007F305105C50045084404430441
:102ED200420403196D2F6E2F712FD301D30A762F5F
:102EE2003E1C742F752F762F6E2F530803197A2FDD
:102EF2007B2FAC2F0130BE07003003180130BF0713
:102F0200003003180130C007003003180130C10738
:102F1200411C8C2F8D2FAC2F3E08C2003F08C300EE
:102F22004008C4004108C5000130C600450DC50C6B
:102F3200C40CC30CC20CC60B972F4508C100440831
:102F4200C0004308BF004208BE000130CC0703188E
:102F5200CD0A0030CD074D08803AFF0080307F0255
:102F6200031DB52FFF304C02031CB82FB92FC72FFA
:102F7200FF3083120313CC000030CD000030C100BB
:102F82000030C0000030BF000030BE0083120313C7
:102F92004D08803AFF0080307F02031DD22F01309E
:102FA2004C020318D52FD62FE32F83120313CC0123
:102FB200CD010030C1000030C0000030BF00003041
:102FC200BE00CB01831203134C08C2004208D20098
:102FD200521CEC2FED2FEF2FC017F32F7F30C200C2
:102FE2004208C0055208C2000310420CC300430845
:0E2FF200C1004B08C2004208C104972E08001F
:08400000FF3FFF3FFF3FFF3FC0
:04400E00D420FF3F7C
:00000001FF
